{
  "contractName": "user",
  "abi": [
    {
      "anonymous": false,
      "inputs": [
        {
          "indexed": false,
          "internalType": "uint256",
          "name": "did",
          "type": "uint256"
        },
        {
          "indexed": false,
          "internalType": "string",
          "name": "hash",
          "type": "string"
        },
        {
          "indexed": false,
          "internalType": "string",
          "name": "driver_name",
          "type": "string"
        },
        {
          "indexed": false,
          "internalType": "uint256",
          "name": "drivertipAmount",
          "type": "uint256"
        },
        {
          "indexed": false,
          "internalType": "string",
          "name": "verified",
          "type": "string"
        },
        {
          "indexed": false,
          "internalType": "address payable",
          "name": "author",
          "type": "address"
        }
      ],
      "name": "DiverCreated",
      "type": "event"
    },
    {
      "anonymous": false,
      "inputs": [
        {
          "indexed": false,
          "internalType": "uint256",
          "name": "rid",
          "type": "uint256"
        },
        {
          "indexed": false,
          "internalType": "string",
          "name": "rsource",
          "type": "string"
        },
        {
          "indexed": false,
          "internalType": "string",
          "name": "rdestination",
          "type": "string"
        },
        {
          "indexed": false,
          "internalType": "string",
          "name": "rdate",
          "type": "string"
        },
        {
          "indexed": false,
          "internalType": "string",
          "name": "rtime",
          "type": "string"
        },
        {
          "indexed": false,
          "internalType": "string",
          "name": "rider",
          "type": "string"
        },
        {
          "indexed": false,
          "internalType": "uint256",
          "name": "rideamount",
          "type": "uint256"
        },
        {
          "indexed": false,
          "internalType": "address payable",
          "name": "author",
          "type": "address"
        }
      ],
      "name": "RideCreated",
      "type": "event"
    },
    {
      "anonymous": false,
      "inputs": [
        {
          "indexed": false,
          "internalType": "uint256",
          "name": "id",
          "type": "uint256"
        },
        {
          "indexed": false,
          "internalType": "string",
          "name": "source",
          "type": "string"
        },
        {
          "indexed": false,
          "internalType": "string",
          "name": "destination",
          "type": "string"
        },
        {
          "indexed": false,
          "internalType": "uint256",
          "name": "tipAmount",
          "type": "uint256"
        },
        {
          "indexed": false,
          "internalType": "string",
          "name": "date",
          "type": "string"
        },
        {
          "indexed": false,
          "internalType": "string",
          "name": "time",
          "type": "string"
        },
        {
          "indexed": false,
          "internalType": "address payable",
          "name": "author",
          "type": "address"
        }
      ],
      "name": "UserCreated",
      "type": "event"
    },
    {
      "anonymous": false,
      "inputs": [
        {
          "indexed": false,
          "internalType": "uint256",
          "name": "id",
          "type": "uint256"
        },
        {
          "indexed": false,
          "internalType": "uint256",
          "name": "amount",
          "type": "uint256"
        },
        {
          "indexed": false,
          "internalType": "address payable",
          "name": "author",
          "type": "address"
        }
      ],
      "name": "rideAmount",
      "type": "event"
    },
    {
      "constant": true,
      "inputs": [
        {
          "internalType": "uint256",
          "name": "",
          "type": "uint256"
        }
      ],
      "name": "driver",
      "outputs": [
        {
          "internalType": "uint256",
          "name": "did",
          "type": "uint256"
        },
        {
          "internalType": "string",
          "name": "hash",
          "type": "string"
        },
        {
          "internalType": "string",
          "name": "driver_name",
          "type": "string"
        },
        {
          "internalType": "uint256",
          "name": "drivertipAmount",
          "type": "uint256"
        },
        {
          "internalType": "bool",
          "name": "verify",
          "type": "bool"
        },
        {
          "internalType": "string",
          "name": "verified",
          "type": "string"
        },
        {
          "internalType": "address payable",
          "name": "author",
          "type": "address"
        }
      ],
      "payable": false,
      "stateMutability": "view",
      "type": "function"
    },
    {
      "constant": true,
      "inputs": [],
      "name": "imgCount",
      "outputs": [
        {
          "internalType": "uint256",
          "name": "",
          "type": "uint256"
        }
      ],
      "payable": false,
      "stateMutability": "view",
      "type": "function"
    },
    {
      "constant": true,
      "inputs": [],
      "name": "name",
      "outputs": [
        {
          "internalType": "string",
          "name": "",
          "type": "string"
        }
      ],
      "payable": false,
      "stateMutability": "view",
      "type": "function"
    },
    {
      "constant": true,
      "inputs": [],
      "name": "reqCount",
      "outputs": [
        {
          "internalType": "uint256",
          "name": "",
          "type": "uint256"
        }
      ],
      "payable": false,
      "stateMutability": "view",
      "type": "function"
    },
    {
      "constant": true,
      "inputs": [
        {
          "internalType": "uint256",
          "name": "",
          "type": "uint256"
        }
      ],
      "name": "ride",
      "outputs": [
        {
          "internalType": "uint256",
          "name": "rid",
          "type": "uint256"
        },
        {
          "internalType": "string",
          "name": "rsource",
          "type": "string"
        },
        {
          "internalType": "string",
          "name": "rdestination",
          "type": "string"
        },
        {
          "internalType": "string",
          "name": "rdate",
          "type": "string"
        },
        {
          "internalType": "string",
          "name": "rtime",
          "type": "string"
        },
        {
          "internalType": "string",
          "name": "rider",
          "type": "string"
        },
        {
          "internalType": "uint256",
          "name": "rideamount",
          "type": "uint256"
        },
        {
          "internalType": "address payable",
          "name": "author",
          "type": "address"
        }
      ],
      "payable": false,
      "stateMutability": "view",
      "type": "function"
    },
    {
      "constant": true,
      "inputs": [],
      "name": "rideCount",
      "outputs": [
        {
          "internalType": "uint256",
          "name": "",
          "type": "uint256"
        }
      ],
      "payable": false,
      "stateMutability": "view",
      "type": "function"
    },
    {
      "constant": true,
      "inputs": [
        {
          "internalType": "uint256",
          "name": "",
          "type": "uint256"
        }
      ],
      "name": "users",
      "outputs": [
        {
          "internalType": "uint256",
          "name": "id",
          "type": "uint256"
        },
        {
          "internalType": "string",
          "name": "source",
          "type": "string"
        },
        {
          "internalType": "string",
          "name": "destination",
          "type": "string"
        },
        {
          "internalType": "uint256",
          "name": "tipAmount",
          "type": "uint256"
        },
        {
          "internalType": "string",
          "name": "date",
          "type": "string"
        },
        {
          "internalType": "string",
          "name": "time",
          "type": "string"
        },
        {
          "internalType": "address payable",
          "name": "author",
          "type": "address"
        }
      ],
      "payable": false,
      "stateMutability": "view",
      "type": "function"
    },
    {
      "constant": false,
      "inputs": [
        {
          "internalType": "string",
          "name": "_source",
          "type": "string"
        },
        {
          "internalType": "string",
          "name": "_destination",
          "type": "string"
        },
        {
          "internalType": "string",
          "name": "_date",
          "type": "string"
        },
        {
          "internalType": "string",
          "name": "_time",
          "type": "string"
        }
      ],
      "name": "rideReq",
      "outputs": [],
      "payable": false,
      "stateMutability": "nonpayable",
      "type": "function"
    },
    {
      "constant": false,
      "inputs": [
        {
          "internalType": "string",
          "name": "_imgHash",
          "type": "string"
        },
        {
          "internalType": "string",
          "name": "_name",
          "type": "string"
        },
        {
          "internalType": "bool",
          "name": "_verified",
          "type": "bool"
        }
      ],
      "name": "uploadImg",
      "outputs": [],
      "payable": false,
      "stateMutability": "nonpayable",
      "type": "function"
    },
    {
      "constant": false,
      "inputs": [
        {
          "internalType": "uint256",
          "name": "_id",
          "type": "uint256"
        },
        {
          "internalType": "string",
          "name": "hashs",
          "type": "string"
        },
        {
          "internalType": "string",
          "name": "dname",
          "type": "string"
        },
        {
          "internalType": "address payable",
          "name": "author",
          "type": "address"
        }
      ],
      "name": "verifyDriver",
      "outputs": [],
      "payable": false,
      "stateMutability": "nonpayable",
      "type": "function"
    },
    {
      "constant": false,
      "inputs": [
        {
          "internalType": "string",
          "name": "_rsource",
          "type": "string"
        },
        {
          "internalType": "string",
          "name": "_rdestination",
          "type": "string"
        },
        {
          "internalType": "string",
          "name": "_rdate",
          "type": "string"
        },
        {
          "internalType": "string",
          "name": "_rtime",
          "type": "string"
        },
        {
          "internalType": "string",
          "name": "_ride",
          "type": "string"
        },
        {
          "internalType": "uint256",
          "name": "amount",
          "type": "uint256"
        }
      ],
      "name": "uploadRide",
      "outputs": [],
      "payable": false,
      "stateMutability": "nonpayable",
      "type": "function"
    },
    {
      "constant": false,
      "inputs": [
        {
          "internalType": "address payable",
          "name": "_author",
          "type": "address"
        }
      ],
      "name": "ridePayment",
      "outputs": [],
      "payable": true,
      "stateMutability": "payable",
      "type": "function"
    }
  ],
  "bytecode": "0x60806040526040518060400160405280600581526020017f5573657273000000000000000000000000000000000000000000000000000000815250600090805190602001906200005192919062000075565b506000600155600060035560006005553480156200006e57600080fd5b5062000124565b828054600181600116156101000203166002900490600052602060002090601f016020900481019282601f10620000b857805160ff1916838001178555620000e9565b82800160010185558215620000e9579182015b82811115620000e8578251825591602001919060010190620000cb565b5b509050620000f89190620000fc565b5090565b6200012191905b808211156200011d57600081600090555060010162000103565b5090565b90565b6128b580620001346000396000f3fe6080604052600436106100a75760003560e01c806391fc95f71161006457806391fc95f714610ae4578063b47c188314610d89578063b70bf16f14610db4578063de6565e314610df8578063ed99bccc14610fd0578063f923ab9f14610ffb576100a7565b806306fdde03146100ac578063365b98b21461013c57806365b68624146103755780636f0ec984146103a05780637474da58146106ce57806381ffa9e914610857575b600080fd5b3480156100b857600080fd5b506100c1611166565b6040518080602001828103825283818151815260200191508051906020019080838360005b838110156101015780820151818401526020810190506100e6565b50505050905090810190601f16801561012e5780820380516001836020036101000a031916815260200191505b509250505060405180910390f35b34801561014857600080fd5b506101756004803603602081101561015f57600080fd5b8101908080359060200190929190505050611204565b60405180888152602001806020018060200187815260200180602001806020018673ffffffffffffffffffffffffffffffffffffffff1673ffffffffffffffffffffffffffffffffffffffff16815260200185810385528b818151815260200191508051906020019080838360005b838110156101ff5780820151818401526020810190506101e4565b50505050905090810190601f16801561022c5780820380516001836020036101000a031916815260200191505b5085810384528a818151815260200191508051906020019080838360005b8381101561026557808201518184015260208101905061024a565b50505050905090810190601f1680156102925780820380516001836020036101000a031916815260200191505b50858103835288818151815260200191508051906020019080838360005b838110156102cb5780820151818401526020810190506102b0565b50505050905090810190601f1680156102f85780820380516001836020036101000a031916815260200191505b50858103825287818151815260200191508051906020019080838360005b83811015610331578082015181840152602081019050610316565b50505050905090810190601f16801561035e5780820380516001836020036101000a031916815260200191505b509b50505050505050505050505060405180910390f35b34801561038157600080fd5b5061038a6114c6565b6040518082815260200191505060405180910390f35b3480156103ac57600080fd5b506106cc600480360360c08110156103c357600080fd5b81019080803590602001906401000000008111156103e057600080fd5b8201836020820111156103f257600080fd5b8035906020019184600183028401116401000000008311171561041457600080fd5b91908080601f016020809104026020016040519081016040528093929190818152602001838380828437600081840152601f19601f8201169050808301925050505050505091929192908035906020019064010000000081111561047757600080fd5b82018360208201111561048957600080fd5b803590602001918460018302840111640100000000831117156104ab57600080fd5b91908080601f016020809104026020016040519081016040528093929190818152602001838380828437600081840152601f19601f8201169050808301925050505050505091929192908035906020019064010000000081111561050e57600080fd5b82018360208201111561052057600080fd5b8035906020019184600183028401116401000000008311171561054257600080fd5b91908080601f016020809104026020016040519081016040528093929190818152602001838380828437600081840152601f19601f820116905080830192505050505050509192919290803590602001906401000000008111156105a557600080fd5b8201836020820111156105b757600080fd5b803590602001918460018302840111640100000000831117156105d957600080fd5b91908080601f016020809104026020016040519081016040528093929190818152602001838380828437600081840152601f19601f8201169050808301925050505050505091929192908035906020019064010000000081111561063c57600080fd5b82018360208201111561064e57600080fd5b8035906020019184600183028401116401000000008311171561067057600080fd5b91908080601f016020809104026020016040519081016040528093929190818152602001838380828437600081840152601f19601f820116905080830192505050505050509192919290803590602001909291905050506114cc565b005b3480156106da57600080fd5b50610855600480360360808110156106f157600080fd5b81019080803590602001909291908035906020019064010000000081111561071857600080fd5b82018360208201111561072a57600080fd5b8035906020019184600183028401116401000000008311171561074c57600080fd5b91908080601f016020809104026020016040519081016040528093929190818152602001838380828437600081840152601f19601f820116905080830192505050505050509192919290803590602001906401000000008111156107af57600080fd5b8201836020820111156107c157600080fd5b803590602001918460018302840111640100000000831117156107e357600080fd5b91908080601f016020809104026020016040519081016040528093929190818152602001838380828437600081840152601f19601f820116905080830192505050505050509192919290803573ffffffffffffffffffffffffffffffffffffffff1690602001909291905050506118d2565b005b34801561086357600080fd5b50610ae26004803603608081101561087a57600080fd5b810190808035906020019064010000000081111561089757600080fd5b8201836020820111156108a957600080fd5b803590602001918460018302840111640100000000831117156108cb57600080fd5b91908080601f016020809104026020016040519081016040528093929190818152602001838380828437600081840152601f19601f8201169050808301925050505050505091929192908035906020019064010000000081111561092e57600080fd5b82018360208201111561094057600080fd5b8035906020019184600183028401116401000000008311171561096257600080fd5b91908080601f016020809104026020016040519081016040528093929190818152602001838380828437600081840152601f19601f820116905080830192505050505050509192919290803590602001906401000000008111156109c557600080fd5b8201836020820111156109d757600080fd5b803590602001918460018302840111640100000000831117156109f957600080fd5b91908080601f016020809104026020016040519081016040528093929190818152602001838380828437600081840152601f19601f82011690508083019250505050505050919291929080359060200190640100000000811115610a5c57600080fd5b820183602082011115610a6e57600080fd5b80359060200191846001830284011164010000000083111715610a9057600080fd5b91908080601f016020809104026020016040519081016040528093929190818152602001838380828437600081840152601f19601f820116905080830192505050505050509192919290505050611a42565b005b348015610af057600080fd5b50610b1d60048036036020811015610b0757600080fd5b8101908080359060200190929190505050611e0d565b6040518089815260200180602001806020018060200180602001806020018881526020018773ffffffffffffffffffffffffffffffffffffffff1673ffffffffffffffffffffffffffffffffffffffff16815260200186810386528d818151815260200191508051906020019080838360005b83811015610bab578082015181840152602081019050610b90565b50505050905090810190601f168015610bd85780820380516001836020036101000a031916815260200191505b5086810385528c818151815260200191508051906020019080838360005b83811015610c11578082015181840152602081019050610bf6565b50505050905090810190601f168015610c3e5780820380516001836020036101000a031916815260200191505b5086810384528b818151815260200191508051906020019080838360005b83811015610c77578082015181840152602081019050610c5c565b50505050905090810190601f168015610ca45780820380516001836020036101000a031916815260200191505b5086810383528a818151815260200191508051906020019080838360005b83811015610cdd578082015181840152602081019050610cc2565b50505050905090810190601f168015610d0a5780820380516001836020036101000a031916815260200191505b50868103825289818151815260200191508051906020019080838360005b83811015610d43578082015181840152602081019050610d28565b50505050905090810190601f168015610d705780820380516001836020036101000a031916815260200191505b509d505050505050505050505050505060405180910390f35b348015610d9557600080fd5b50610d9e61216d565b6040518082815260200191505060405180910390f35b610df660048036036020811015610dca57600080fd5b81019080803573ffffffffffffffffffffffffffffffffffffffff169060200190929190505050612173565b005b348015610e0457600080fd5b50610e3160048036036020811015610e1b57600080fd5b81019080803590602001909291905050506121bd565b60405180888152602001806020018060200187815260200186151515158152602001806020018573ffffffffffffffffffffffffffffffffffffffff1673ffffffffffffffffffffffffffffffffffffffff16815260200184810384528a818151815260200191508051906020019080838360005b83811015610ec1578082015181840152602081019050610ea6565b50505050905090810190601f168015610eee5780820380516001836020036101000a031916815260200191505b50848103835289818151815260200191508051906020019080838360005b83811015610f27578082015181840152602081019050610f0c565b50505050905090810190601f168015610f545780820380516001836020036101000a031916815260200191505b50848103825286818151815260200191508051906020019080838360005b83811015610f8d578082015181840152602081019050610f72565b50505050905090810190601f168015610fba5780820380516001836020036101000a031916815260200191505b509a505050505050505050505060405180910390f35b348015610fdc57600080fd5b50610fe56123f4565b6040518082815260200191505060405180910390f35b34801561100757600080fd5b506111646004803603606081101561101e57600080fd5b810190808035906020019064010000000081111561103b57600080fd5b82018360208201111561104d57600080fd5b8035906020019184600183028401116401000000008311171561106f57600080fd5b91908080601f016020809104026020016040519081016040528093929190818152602001838380828437600081840152601f19601f820116905080830192505050505050509192919290803590602001906401000000008111156110d257600080fd5b8201836020820111156110e457600080fd5b8035906020019184600183028401116401000000008311171561110657600080fd5b91908080601f016020809104026020016040519081016040528093929190818152602001838380828437600081840152601f19601f8201169050808301925050505050505091929192908035151590602001909291905050506123fa565b005b60008054600181600116156101000203166002900480601f0160208091040260200160405190810160405280929190818152602001828054600181600116156101000203166002900480156111fc5780601f106111d1576101008083540402835291602001916111fc565b820191906000526020600020905b8154815290600101906020018083116111df57829003601f168201915b505050505081565b6002602052806000526040600020600091509050806000015490806001018054600181600116156101000203166002900480601f0160208091040260200160405190810160405280929190818152602001828054600181600116156101000203166002900480156112b65780601f1061128b576101008083540402835291602001916112b6565b820191906000526020600020905b81548152906001019060200180831161129957829003601f168201915b505050505090806002018054600181600116156101000203166002900480601f0160208091040260200160405190810160405280929190818152602001828054600181600116156101000203166002900480156113545780601f1061132957610100808354040283529160200191611354565b820191906000526020600020905b81548152906001019060200180831161133757829003601f168201915b505050505090806003015490806004018054600181600116156101000203166002900480601f0160208091040260200160405190810160405280929190818152602001828054600181600116156101000203166002900480156113f85780601f106113cd576101008083540402835291602001916113f8565b820191906000526020600020905b8154815290600101906020018083116113db57829003601f168201915b505050505090806005018054600181600116156101000203166002900480601f0160208091040260200160405190810160405280929190818152602001828054600181600116156101000203166002900480156114965780601f1061146b57610100808354040283529160200191611496565b820191906000526020600020905b81548152906001019060200180831161147957829003601f168201915b5050505050908060060160009054906101000a900473ffffffffffffffffffffffffffffffffffffffff16905087565b60015481565b60056000815480929190600101919050555060405180610100016040528060055481526020018781526020018681526020018581526020018481526020018381526020018281526020013373ffffffffffffffffffffffffffffffffffffffff1681525060066000600554815260200190815260200160002060008201518160000155602082015181600101908051906020019061156b9291906127db565b5060408201518160020190805190602001906115889291906127db565b5060608201518160030190805190602001906115a59291906127db565b5060808201518160040190805190602001906115c29291906127db565b5060a08201518160050190805190602001906115df9291906127db565b5060c0820151816006015560e08201518160070160006101000a81548173ffffffffffffffffffffffffffffffffffffffff021916908373ffffffffffffffffffffffffffffffffffffffff1602179055509050507f0cf559d12ff48dc9689e3bc0d05ad3b3bfc81aeb70ac4e62d4d0a985ea82f6b2600554878787878787336040518089815260200180602001806020018060200180602001806020018881526020018773ffffffffffffffffffffffffffffffffffffffff1673ffffffffffffffffffffffffffffffffffffffff16815260200186810386528d818151815260200191508051906020019080838360005b838110156116ed5780820151818401526020810190506116d2565b50505050905090810190601f16801561171a5780820380516001836020036101000a031916815260200191505b5086810385528c818151815260200191508051906020019080838360005b83811015611753578082015181840152602081019050611738565b50505050905090810190601f1680156117805780820380516001836020036101000a031916815260200191505b5086810384528b818151815260200191508051906020019080838360005b838110156117b957808201518184015260208101905061179e565b50505050905090810190601f1680156117e65780820380516001836020036101000a031916815260200191505b5086810383528a818151815260200191508051906020019080838360005b8381101561181f578082015181840152602081019050611804565b50505050905090810190601f16801561184c5780820380516001836020036101000a031916815260200191505b50868103825289818151815260200191508051906020019080838360005b8381101561188557808201518184015260208101905061186a565b50505050905090810190601f1680156118b25780820380516001836020036101000a031916815260200191505b509d505050505050505050505050505060405180910390a1505050505050565b6040518060e00160405280858152602001848152602001838152602001600081526020016001151581526020016040518060400160405280601381526020017f50726f66696c652069732076657269666965640000000000000000000000000081525081526020018273ffffffffffffffffffffffffffffffffffffffff168152506004600086815260200190815260200160002060008201518160000155602082015181600101908051906020019061198d9291906127db565b5060408201518160020190805190602001906119aa9291906127db565b506060820151816003015560808201518160040160006101000a81548160ff02191690831515021790555060a08201518160050190805190602001906119f19291906127db565b5060c08201518160060160006101000a81548173ffffffffffffffffffffffffffffffffffffffff021916908373ffffffffffffffffffffffffffffffffffffffff16021790555090505050505050565b6000845111611a5057600080fd5b6000835111611a5e57600080fd5b600073ffffffffffffffffffffffffffffffffffffffff163373ffffffffffffffffffffffffffffffffffffffff161415611a9857600080fd5b6001600081548092919060010191905055506040518060e001604052806001548152602001858152602001848152602001600081526020018381526020018281526020013373ffffffffffffffffffffffffffffffffffffffff16815250600260006001548152602001908152602001600020600082015181600001556020820151816001019080519060200190611b319291906127db565b506040820151816002019080519060200190611b4e9291906127db565b50606082015181600301556080820151816004019080519060200190611b759291906127db565b5060a0820151816005019080519060200190611b929291906127db565b5060c08201518160060160006101000a81548173ffffffffffffffffffffffffffffffffffffffff021916908373ffffffffffffffffffffffffffffffffffffffff1602179055509050507f3b521bcf5a890f39562e91481416c6f41fe20cf14db929be720487e1a456e2f66001548585600086863360405180888152602001806020018060200187815260200180602001806020018673ffffffffffffffffffffffffffffffffffffffff1673ffffffffffffffffffffffffffffffffffffffff16815260200185810385528b818151815260200191508051906020019080838360005b83811015611c92578082015181840152602081019050611c77565b50505050905090810190601f168015611cbf5780820380516001836020036101000a031916815260200191505b5085810384528a818151815260200191508051906020019080838360005b83811015611cf8578082015181840152602081019050611cdd565b50505050905090810190601f168015611d255780820380516001836020036101000a031916815260200191505b50858103835288818151815260200191508051906020019080838360005b83811015611d5e578082015181840152602081019050611d43565b50505050905090810190601f168015611d8b5780820380516001836020036101000a031916815260200191505b50858103825287818151815260200191508051906020019080838360005b83811015611dc4578082015181840152602081019050611da9565b50505050905090810190601f168015611df15780820380516001836020036101000a031916815260200191505b509b50505050505050505050505060405180910390a150505050565b6006602052806000526040600020600091509050806000015490806001018054600181600116156101000203166002900480601f016020809104026020016040519081016040528092919081815260200182805460018160011615610100020316600290048015611ebf5780601f10611e9457610100808354040283529160200191611ebf565b820191906000526020600020905b815481529060010190602001808311611ea257829003601f168201915b505050505090806002018054600181600116156101000203166002900480601f016020809104026020016040519081016040528092919081815260200182805460018160011615610100020316600290048015611f5d5780601f10611f3257610100808354040283529160200191611f5d565b820191906000526020600020905b815481529060010190602001808311611f4057829003601f168201915b505050505090806003018054600181600116156101000203166002900480601f016020809104026020016040519081016040528092919081815260200182805460018160011615610100020316600290048015611ffb5780601f10611fd057610100808354040283529160200191611ffb565b820191906000526020600020905b815481529060010190602001808311611fde57829003601f168201915b505050505090806004018054600181600116156101000203166002900480601f0160208091040260200160405190810160405280929190818152602001828054600181600116156101000203166002900480156120995780601f1061206e57610100808354040283529160200191612099565b820191906000526020600020905b81548152906001019060200180831161207c57829003601f168201915b505050505090806005018054600181600116156101000203166002900480601f0160208091040260200160405190810160405280929190818152602001828054600181600116156101000203166002900480156121375780601f1061210c57610100808354040283529160200191612137565b820191906000526020600020905b81548152906001019060200180831161211a57829003601f168201915b5050505050908060060154908060070160009054906101000a900473ffffffffffffffffffffffffffffffffffffffff16905088565b60055481565b8073ffffffffffffffffffffffffffffffffffffffff166108fc349081150290604051600060405180830381858888f193505050501580156121b9573d6000803e3d6000fd5b5050565b6004602052806000526040600020600091509050806000015490806001018054600181600116156101000203166002900480601f01602080910402602001604051908101604052809291908181526020018280546001816001161561010002031660029004801561226f5780601f106122445761010080835404028352916020019161226f565b820191906000526020600020905b81548152906001019060200180831161225257829003601f168201915b505050505090806002018054600181600116156101000203166002900480601f01602080910402602001604051908101604052809291908181526020018280546001816001161561010002031660029004801561230d5780601f106122e25761010080835404028352916020019161230d565b820191906000526020600020905b8154815290600101906020018083116122f057829003601f168201915b5050505050908060030154908060040160009054906101000a900460ff1690806005018054600181600116156101000203166002900480601f0160208091040260200160405190810160405280929190818152602001828054600181600116156101000203166002900480156123c45780601f10612399576101008083540402835291602001916123c4565b820191906000526020600020905b8154815290600101906020018083116123a757829003601f168201915b5050505050908060060160009054906101000a900473ffffffffffffffffffffffffffffffffffffffff16905087565b60035481565b600083511161240857600080fd5b600082511161241657600080fd5b600073ffffffffffffffffffffffffffffffffffffffff163373ffffffffffffffffffffffffffffffffffffffff16141561245057600080fd5b60608115612495576040518060400160405280601381526020017f50726f66696c652069732076657269666965640000000000000000000000000081525090506124ce565b6040518060400160405280601781526020017f50726f66696c65206973206e6f7420766572696669656400000000000000000081525090505b6003600081548092919060010191905055506040518060e0016040528060035481526020018581526020018481526020016000815260200183151581526020018281526020013373ffffffffffffffffffffffffffffffffffffffff168152506004600060035481526020019081526020016000206000820151816000015560208201518160010190805190602001906125699291906127db565b5060408201518160020190805190602001906125869291906127db565b506060820151816003015560808201518160040160006101000a81548160ff02191690831515021790555060a08201518160050190805190602001906125cd9291906127db565b5060c08201518160060160006101000a81548173ffffffffffffffffffffffffffffffffffffffff021916908373ffffffffffffffffffffffffffffffffffffffff1602179055509050507f8644ef16e814399abd8682bf0d953a0559a990e93d4bdb9c4f0a210892fc1c0c600354858560008533604051808781526020018060200180602001868152602001806020018573ffffffffffffffffffffffffffffffffffffffff1673ffffffffffffffffffffffffffffffffffffffff168152602001848103845289818151815260200191508051906020019080838360005b838110156126c85780820151818401526020810190506126ad565b50505050905090810190601f1680156126f55780820380516001836020036101000a031916815260200191505b50848103835288818151815260200191508051906020019080838360005b8381101561272e578082015181840152602081019050612713565b50505050905090810190601f16801561275b5780820380516001836020036101000a031916815260200191505b50848103825286818151815260200191508051906020019080838360005b83811015612794578082015181840152602081019050612779565b50505050905090810190601f1680156127c15780820380516001836020036101000a031916815260200191505b50995050505050505050505060405180910390a150505050565b828054600181600116156101000203166002900490600052602060002090601f016020900481019282601f1061281c57805160ff191683800117855561284a565b8280016001018555821561284a579182015b8281111561284957825182559160200191906001019061282e565b5b509050612857919061285b565b5090565b61287d91905b80821115612879576000816000905550600101612861565b5090565b9056fea265627a7a7231582077cc62e59d77a2e82add5f40dfe7c72c4022db7dfa3c58a0bf7832ee9eddfb5364736f6c63430005100032",
  "source": "pragma solidity ^0.5.0;\r\n\r\ncontract user {\r\n  //user Code goes here... \r\n\r\n  string public name=\"Users\";\r\n\r\n  uint public reqCount = 0;\r\n  mapping (uint => User) public users;\r\n\r\n  struct User{\r\n    uint id;    \r\n    string source;\r\n    string destination;\r\n    uint tipAmount;\r\n    string date;\r\n    string time;\r\n    address payable author;\r\n  }\r\n    \r\n  event UserCreated(\r\n    uint id,\r\n    string source,\r\n    string destination,\r\n    uint tipAmount,\r\n    string date,\r\n    string time,\r\n    address payable author\r\n  );\r\n\r\n  function rideReq(string memory _source, string memory _destination, string memory _date, string memory _time) public {\r\n\r\n    require(bytes(_source).length > 0);\r\n\r\n    require(bytes(_destination).length > 0);\r\n\r\n    require(msg.sender!=address(0x0));\r\n\r\n    reqCount++;\r\n\r\n    users[reqCount] = User(reqCount, _source, _destination, 0 ,_date,_time, msg.sender);\r\n\r\n    emit UserCreated(reqCount, _source, _destination, 0 ,_date,_time , msg.sender);\r\n  }\r\n/*\r\n  event ImageTipped(\r\n    uint id,\r\n    string hash\r\n    string description,\r\n    uint tipAmount,\r\n    address payable author\r\n  );\r\n\r\n  function tipImageOwner(uint _id) public payable {\r\n    // Make sure the id is valid\r\n    require(_id > 0 && _id <= imageCount);\r\n    // Fetch the image\r\n    Image memory _image = images[_id];\r\n    // Fetch the author\r\n    address payable _author = _image.author;\r\n    // Pay the author by sending them Ether\r\n    address(_author).transfer(msg.value);\r\n    // Increment the tip amount\r\n    _image.tipAmount = _image.tipAmount + msg.value;\r\n    // Update the image\r\n    images[_id] = _image;\r\n    // Trigger an event\r\n    emit ImageTipped(_id, _image.hash, _image.description, _image.tipAmount, _author);\r\n  }*/\r\n\r\n  //Driver code goes here\r\n  uint public imgCount = 0;\r\n  mapping (uint => Driver) public driver;\r\n\r\n  struct Driver{\r\n    uint did;\r\n    string hash;\r\n    string driver_name;\r\n    uint drivertipAmount;\r\n    bool verify;\r\n    string verified;    \r\n    address payable author;\r\n  } \r\n\r\n  event DiverCreated(\r\n    uint did,\r\n    string hash,\r\n    string driver_name,\r\n    uint drivertipAmount,\r\n    string verified,\r\n    address payable author\r\n  );\r\n\r\n  function uploadImg(string memory _imgHash, string memory _name,bool _verified) public {\r\n\r\n    require(bytes(_imgHash).length > 0);\r\n\r\n    require(bytes(_name).length > 0);\r\n\r\n    require(msg.sender!=address(0x0));\r\n    string memory veri_fy;\r\n    if(_verified){\r\n       veri_fy = \"Profile is verified\";\r\n    }\r\n    else{\r\n      veri_fy = \"Profile is not verified\";\r\n    }\r\n\r\n    imgCount++;\r\n\r\n    driver[imgCount] = Driver(imgCount, _imgHash, _name, 0 ,_verified,veri_fy, msg.sender);\r\n\r\n    emit DiverCreated(imgCount, _imgHash, _name, 0 ,veri_fy, msg.sender);\r\n  }\r\n\r\n  function verifyDriver(uint _id, string memory hashs,string memory dname,address payable author) public {\r\n/*\r\n    Driver memory _driver = driver[_id];\r\n\r\n    _driver.verify = _verification;\r\n    _driver.driver_name = \"Random Name\";\r\n\r\n    if(_verification==true){\r\n      _driver.verified = \"Profile is verified\";\r\n\r\n    }*/\r\n\r\n    driver[_id] = Driver(_id,hashs, dname, 0,true ,\"Profile is verified\",author);\r\n\r\n    //emit DiverCreated(_id, _driver.hash, _driver.driver_name, 0 ,_driver.verified, _driver.author);\r\n\r\n  }\r\n\r\n  //Ride code goes here\r\n  uint public rideCount = 0;\r\n  mapping (uint => Ride) public ride;\r\n\r\n  struct Ride{\r\n    uint rid;\r\n    string rsource;\r\n    string rdestination;\r\n    string rdate;\r\n    string rtime;\r\n    string rider;\r\n    uint rideamount;\r\n    address payable author;\r\n    \r\n  } \r\n\r\n  event RideCreated(\r\n     uint rid,\r\n    string rsource,\r\n    string rdestination,\r\n    string rdate,\r\n    string rtime,\r\n    string rider,\r\n    uint rideamount,\r\n    address payable author\r\n  );\r\n\r\n  function uploadRide(string memory _rsource, string memory _rdestination, string memory _rdate, string memory _rtime, string memory _ride, uint amount) public {\r\n\r\n    \r\n\r\n    rideCount++;\r\n\r\n    ride[rideCount] = Ride(rideCount, _rsource, _rdestination, _rdate ,_rtime,_ride,amount,msg.sender);\r\n\r\n    emit RideCreated(rideCount, _rsource, _rdestination, _rdate ,_rtime,_ride,amount,msg.sender);\r\n  }\r\n\r\n  event rideAmount(\r\n    uint id,\r\n    uint amount,\r\n    address payable author\r\n  );\r\n\r\n  function ridePayment(address payable _author) public payable{\r\n    \r\n\r\n    address(_author).transfer(msg.value);\r\n\r\n    //emit rideAmount(pid,0,_author);\r\n\r\n  }\r\n\r\n\r\n\r\n\r\n}",
  "sourcePath": "C:/Users/mahesh/Desktop/Decentagram/P2P/src/contracts/user.sol",
  "compiler": {
    "name": "solc",
    "version": "0.5.16+commit.9c3226ce.Emscripten.clang"
  },
  "schemaVersion": "3.2.3",
  "updatedAt": "2021-05-18T16:42:40.405Z",
  "networkType": "ethereum",
  "devdoc": {
    "methods": {}
  },
  "userdoc": {
    "methods": {}
  }
}